:100000000C9434000C9451000C9451000C94510049
:100010000C9451000C9451000C9451000C94F40178
:100020000C9451000C9451000C9451000C9451000C
:100030000C9451000C9451000C9451000C945100FC
:100040000C9451000C9451000C9451000C945100EC
:100050000C9451000C9451000C9451000C945100DC
:100060000C9451000C94510011241FBECFEFD8E026
:10007000DEBFCDBF11E0A0E0B1E0E6E0F7E002C0F6
:1000800005900D92A034B107D9F721E0A0E4B1E0CA
:1000900001C01D92A336B207E1F70E947C010C94C7
:1000A00081030C9400000F931F93CF93DF93C62F0F
:1000B000D0E08E010B5F1F4FC017D107E4F49E0103
:1000C00090E0AC01440F551F440F551F840F951F3E
:1000D000AC014C5F5E4FD901AE5BBE4F2C1B3D0B9C
:1000E000FA01E20FF31F90819C936F5F262F30E09F
:1000F0002017310784F3DF91CF911F910F9108955D
:10010000CF93C62F0E943E038C2F0E9464030E944F
:100110007D03CF910895CF93DF93D62FC42F0E94F4
:100120003E038D2F0E9464038C2F0E9464030E9463
:100130007D03DF91CF9108950E94310361E284E74E
:100140000E94800060EA84E70E9480006FEE84E7EE
:100150000E94800060E884E70E94800061E280E7FE
:100160000E94800060EA80E70E9480006FEE80E7D6
:100170000E94800060E880E70E9480000895FF925E
:100180000F931F93CF93DF938C01C0E0D0E0F12C4D
:1001900020C0819190E00C2E02C0959587950A941D
:1001A000E2F781709927022E02C0880F991F0A94E6
:1001B000E2F7482B2F5F3F4F2830310551F76F2D65
:1001C00084E70E948B00F394F394219680E1F81663
:1001D00031F1F80120E030E040E0DBCF819190E0A8
:1001E0000C2E02C0959587950A94E2F781709927A5
:1001F000022E02C0880F991F0A94E2F7482B2F5F46
:100200003F4F2830310551F76F2D84E70E948B0056
:10021000F394F394219681E1F81205C02BC0C0E05D
:10022000D0E0FF24F394F801389620E030E040E07D
:10023000D5CF819190E00C2E02C0959587950A94B8
:10024000E2F781709927022E02C0880F991F0A9445
:10025000E2F7482B2F5F3F4F2830310551F76F2DC4
:1002600080E70E948B00F394F394219680E1F812CA
:1002700004C02AC0C0E0D0E0F12CF801709620E064
:1002800030E040E0D6CF819190E00C2E02C09595F1
:1002900087950A94E2F781709927022E02C0880F91
:1002A000991F0A94E2F7482B2F5F3F4F2830310502
:1002B00051F76F2D80E70E948B00F394F394219601
:1002C00081E1F81205C00AC0C0E0D0E0FF24F39439
:1002D000F801789620E030E040E0D5CF61E884E78F
:1002E0000E94800061E880E70E948000DF91CF914A
:1002F0001F910F91FF9008951AB880EC8BB90E945E
:1003000018030E949C007894C3EBD0E00F2EFFE30B
:10031000CF2EF02DFF24F39400E011E00F2EFAE031
:10032000DF2EF02D0F2EFBE0EF2EF02D4E990BC09F
:10033000F0924101109262018881833028F1888116
:100340008150888321C04F990BC0F09262011092B6
:10035000410188818330C0F088818150888314C036
:100360004F990DC04E990BC0F0926201F09241017D
:100370008881833048F088818150888305C010923D
:10038000620110924101C8828091000190910101A7
:10039000929582958F7089279F70892760E08F7072
:1003A0000E945300F801808165E08F700E94530025
:1003B00080914001811102C08E2D01C08D2D6AE116
:1003C0000E9453008091030160E182958F700E942A
:1003D00053008091030165E18F700E94530082E415
:1003E00091E00E94BF00A2CF1F920F920FB60F9212
:1003F00011242F933F934F935F936F938F939F930A
:1004000080914001882309F464C0109240018091DA
:100410000201909103019C012F703327293031058F
:1004200008F451C09C01207F33272035310508F4A2
:1004300043C09C0122273F7021153940B0F1882725
:10044000907F811560E5960750F1809100019091B1
:1004500001019C012F7033272930310558F010928B
:10046000030110920201807F4096909301018093D6
:10047000000132C0833249F4109201011092000150
:10048000109203011092020127C0109203011092F2
:100490000201019690930101809300011DC0905FBD
:1004A000909303018093020117C08827939590933E
:1004B00003018093020110C0807F40969093030156
:1004C0008093020109C00196909303018093020179
:1004D00003C081E08093400180916201882309F488
:1004E0004AC01092400180910201909103019C0149
:1004F0002227AC0144275F7041155940B0F188278D
:10050000907F811520E5920750F180910001909134
:1005100001019C012F7033272930310558F01092CA
:10052000030110920201807F409690930101809315
:10053000000172C0833249F410920101109200014F
:10054000109203011092020167C0109203011092F1
:100550000201019690930101809300015DC0905FBC
:10056000909303018093020157C0339530930301A8
:100570002093020151C080914101882309F44CC0AD
:100580001092400180910201909103019C01222769
:10059000AC0144275F70452BD1F58827907F892BCC
:1005A00079F5809100019091010181110DC083E2E4
:1005B00090E0909301018093000180E099E5909391
:1005C00003018093020128C0AC014F705527452BD1
:1005D00061F43965309303012093020189604097EB
:1005E000909301018093000117C00197909301013E
:1005F00080930001396530930301209302010CC000
:1006000039603051309303012093020105C03A95BF
:1006100030930301209302019F918F916F915F911D
:100620004F913F912F910F900FBE0F901F901895F3
:1006300082E084BD91E095BD109280009CE0909393
:1006400081008093B00096E09093B10090E2909387
:10065000B60093E197BD9FE39093B3008093700041
:100660000895ECEBF0E0108280E18093B8001092E6
:10067000B9001092BA0084E08083089594EA9093C0
:10068000BC00ECEBF0E090819923ECF7E9EBF0E0B3
:1006900090819081880F8093BB0084E88093BC0098
:1006A000ECEBF0E080818823ECF78091B900887F43
:1006B000883141F0803211F48FEF08958091B900B4
:1006C000887F089580E008958093BB0084E880933C
:1006D000BC00ECEBF0E080818823ECF78091B9005E
:1006E000887F883241F0803311F48FEF0895809134
:1006F000B900887F089580E0089584E98093BC0064
:060700000895F894FFCFFC
:10070600230000593E5149453E00427F4000426168
:1007160051494622414949361814127F102745454A
:1007260045393C4A49493001710905033649494969
:1007360036064949291E000022000000000000007C
:00000001FF
